{
  "contractName": "Donations",
  "abi": [
    {
      "inputs": [],
      "stateMutability": "nonpayable",
      "type": "constructor"
    },
    {
      "anonymous": false,
      "inputs": [
        {
          "indexed": false,
          "internalType": "uint256",
          "name": "donationId",
          "type": "uint256"
        },
        {
          "indexed": false,
          "internalType": "address",
          "name": "donor",
          "type": "address"
        },
        {
          "indexed": false,
          "internalType": "address",
          "name": "receiver",
          "type": "address"
        },
        {
          "indexed": false,
          "internalType": "uint256",
          "name": "amount",
          "type": "uint256"
        }
      ],
      "name": "DonationMade",
      "type": "event"
    },
    {
      "anonymous": false,
      "inputs": [
        {
          "indexed": true,
          "internalType": "address",
          "name": "previousOwner",
          "type": "address"
        },
        {
          "indexed": true,
          "internalType": "address",
          "name": "newOwner",
          "type": "address"
        }
      ],
      "name": "OwnershipTransferred",
      "type": "event"
    },
    {
      "anonymous": false,
      "inputs": [
        {
          "indexed": false,
          "internalType": "address",
          "name": "member",
          "type": "address"
        },
        {
          "indexed": false,
          "internalType": "uint256",
          "name": "amount",
          "type": "uint256"
        }
      ],
      "name": "WithdrawalMade",
      "type": "event"
    },
    {
      "inputs": [
        {
          "internalType": "address",
          "name": "",
          "type": "address"
        }
      ],
      "name": "balanceOf",
      "outputs": [
        {
          "internalType": "uint256",
          "name": "",
          "type": "uint256"
        }
      ],
      "stateMutability": "view",
      "type": "function",
      "constant": true
    },
    {
      "inputs": [
        {
          "internalType": "address",
          "name": "",
          "type": "address"
        },
        {
          "internalType": "uint256",
          "name": "",
          "type": "uint256"
        }
      ],
      "name": "donations",
      "outputs": [
        {
          "internalType": "address",
          "name": "donor",
          "type": "address"
        },
        {
          "internalType": "address",
          "name": "receiver",
          "type": "address"
        },
        {
          "internalType": "uint256",
          "name": "amount",
          "type": "uint256"
        }
      ],
      "stateMutability": "view",
      "type": "function",
      "constant": true
    },
    {
      "inputs": [
        {
          "internalType": "address",
          "name": "",
          "type": "address"
        }
      ],
      "name": "isMember",
      "outputs": [
        {
          "internalType": "bool",
          "name": "",
          "type": "bool"
        }
      ],
      "stateMutability": "view",
      "type": "function",
      "constant": true
    },
    {
      "inputs": [],
      "name": "owner",
      "outputs": [
        {
          "internalType": "address",
          "name": "",
          "type": "address"
        }
      ],
      "stateMutability": "view",
      "type": "function",
      "constant": true
    },
    {
      "inputs": [],
      "name": "renounceOwnership",
      "outputs": [],
      "stateMutability": "nonpayable",
      "type": "function"
    },
    {
      "inputs": [
        {
          "internalType": "address",
          "name": "",
          "type": "address"
        }
      ],
      "name": "totalDonations",
      "outputs": [
        {
          "internalType": "uint256",
          "name": "",
          "type": "uint256"
        }
      ],
      "stateMutability": "view",
      "type": "function",
      "constant": true
    },
    {
      "inputs": [
        {
          "internalType": "address",
          "name": "newOwner",
          "type": "address"
        }
      ],
      "name": "transferOwnership",
      "outputs": [],
      "stateMutability": "nonpayable",
      "type": "function"
    },
    {
      "inputs": [
        {
          "internalType": "address",
          "name": "receiver",
          "type": "address"
        }
      ],
      "name": "donate",
      "outputs": [],
      "stateMutability": "payable",
      "type": "function",
      "payable": true
    },
    {
      "inputs": [],
      "name": "withdraw",
      "outputs": [],
      "stateMutability": "nonpayable",
      "type": "function"
    },
    {
      "inputs": [],
      "name": "ownerWithdrawal",
      "outputs": [],
      "stateMutability": "nonpayable",
      "type": "function"
    },
    {
      "inputs": [
        {
          "internalType": "uint256",
          "name": "newCommissionRate",
          "type": "uint256"
        }
      ],
      "name": "updateCommissionRate",
      "outputs": [],
      "stateMutability": "nonpayable",
      "type": "function"
    }
  ],
  "bytecode": "0x60806040526005805534801561001457600080fd5b5061003161002661003660201b60201c565b61003e60201b60201c565b610102565b600033905090565b60008060009054906101000a900473ffffffffffffffffffffffffffffffffffffffff169050816000806101000a81548173ffffffffffffffffffffffffffffffffffffffff021916908373ffffffffffffffffffffffffffffffffffffffff1602179055508173ffffffffffffffffffffffffffffffffffffffff168173ffffffffffffffffffffffffffffffffffffffff167f8be0079c531659141344cd1fd0a4f28419497f9722a3daafe3b4186f6b6457e060405160405180910390a35050565b611628806101116000396000f3fe60806040526004361061009a5760003560e01c8063715018a611610064578063715018a6146101755780638da5cb5b1461018c57806395086ed1146101b7578063a230c524146101f6578063f27a044714610233578063f2fde38b1461024a5761009a565b8062362a951461009f578062fa3d50146100bb5780633ccfd60b146100e45780635a4c38a7146100fb57806370a0823114610138575b600080fd5b6100b960048036038101906100b49190610e34565b610273565b005b3480156100c757600080fd5b506100e260048036038101906100dd9190610e97565b610615565b005b3480156100f057600080fd5b506100f961069b565b005b34801561010757600080fd5b50610122600480360381019061011d9190610e34565b61091b565b60405161012f9190610ed3565b60405180910390f35b34801561014457600080fd5b5061015f600480360381019061015a9190610e34565b610933565b60405161016c9190610ed3565b60405180910390f35b34801561018157600080fd5b5061018a61094b565b005b34801561019857600080fd5b506101a16109d3565b6040516101ae9190610efd565b60405180910390f35b3480156101c357600080fd5b506101de60048036038101906101d99190610f18565b6109fc565b6040516101ed93929190610f58565b60405180910390f35b34801561020257600080fd5b5061021d60048036038101906102189190610e34565b610a73565b60405161022a9190610faa565b60405180910390f35b34801561023f57600080fd5b50610248610a93565b005b34801561025657600080fd5b50610271600480360381019061026c9190610e34565b610c0d565b005b600034116102b6576040517f08c379a00000000000000000000000000000000000000000000000000000000081526004016102ad90611022565b60405180910390fd5b600360008273ffffffffffffffffffffffffffffffffffffffff1673ffffffffffffffffffffffffffffffffffffffff16815260200190815260200160002060009054906101000a900460ff16610342576040517f08c379a00000000000000000000000000000000000000000000000000000000081526004016103399061108e565b60405180910390fd5b3373ffffffffffffffffffffffffffffffffffffffff168173ffffffffffffffffffffffffffffffffffffffff1614156103b1576040517f08c379a00000000000000000000000000000000000000000000000000000000081526004016103a890611120565b60405180910390fd5b60006064600554346103c3919061116f565b6103cd91906111f8565b905080600660008282546103e19190611229565b9250508190555080346103f4919061127f565b600460008473ffffffffffffffffffffffffffffffffffffffff1673ffffffffffffffffffffffffffffffffffffffff16815260200190815260200160002060008282546104429190611229565b925050819055506000600260008473ffffffffffffffffffffffffffffffffffffffff1673ffffffffffffffffffffffffffffffffffffffff168152602001908152602001600020600081548092919061049b906112b3565b91905055905060405180606001604052803373ffffffffffffffffffffffffffffffffffffffff1681526020018473ffffffffffffffffffffffffffffffffffffffff16815260200134815250600160008573ffffffffffffffffffffffffffffffffffffffff1673ffffffffffffffffffffffffffffffffffffffff168152602001908152602001600020600083815260200190815260200160002060008201518160000160006101000a81548173ffffffffffffffffffffffffffffffffffffffff021916908373ffffffffffffffffffffffffffffffffffffffff16021790555060208201518160010160006101000a81548173ffffffffffffffffffffffffffffffffffffffff021916908373ffffffffffffffffffffffffffffffffffffffff160217905550604082015181600201559050507f72ea702afc24965f735ac4ac552f859b352084ad99f47a425a691630814014fe8133853460405161060894939291906112fc565b60405180910390a1505050565b61061d610d05565b73ffffffffffffffffffffffffffffffffffffffff1661063b6109d3565b73ffffffffffffffffffffffffffffffffffffffff1614610691576040517f08c379a00000000000000000000000000000000000000000000000000000000081526004016106889061138d565b60405180910390fd5b8060058190555050565b600360003373ffffffffffffffffffffffffffffffffffffffff1673ffffffffffffffffffffffffffffffffffffffff16815260200190815260200160002060009054906101000a900460ff16610727576040517f08c379a000000000000000000000000000000000000000000000000000000000815260040161071e906113f9565b60405180910390fd5b6000600460003373ffffffffffffffffffffffffffffffffffffffff1673ffffffffffffffffffffffffffffffffffffffff16815260200190815260200160002054116107a9576040517f08c379a00000000000000000000000000000000000000000000000000000000081526004016107a090611465565b60405180910390fd5b6000600460003373ffffffffffffffffffffffffffffffffffffffff1673ffffffffffffffffffffffffffffffffffffffff16815260200190815260200160002054905060003373ffffffffffffffffffffffffffffffffffffffff1682604051610813906114b6565b60006040518083038185875af1925050503d8060008114610850576040519150601f19603f3d011682016040523d82523d6000602084013e610855565b606091505b5050905080610899576040517f08c379a000000000000000000000000000000000000000000000000000000000815260040161089090611517565b60405180910390fd5b6000600460003373ffffffffffffffffffffffffffffffffffffffff1673ffffffffffffffffffffffffffffffffffffffff168152602001908152602001600020819055507fbc158bb64f05d6383aea69bbb0b20c1bbf4b7a18f63359c5649b7c39e29d3884338360405161090f929190611537565b60405180910390a15050565b60026020528060005260406000206000915090505481565b60046020528060005260406000206000915090505481565b610953610d05565b73ffffffffffffffffffffffffffffffffffffffff166109716109d3565b73ffffffffffffffffffffffffffffffffffffffff16146109c7576040517f08c379a00000000000000000000000000000000000000000000000000000000081526004016109be9061138d565b60405180910390fd5b6109d16000610d0d565b565b60008060009054906101000a900473ffffffffffffffffffffffffffffffffffffffff16905090565b6001602052816000526040600020602052806000526040600020600091509150508060000160009054906101000a900473ffffffffffffffffffffffffffffffffffffffff16908060010160009054906101000a900473ffffffffffffffffffffffffffffffffffffffff16908060020154905083565b60036020528060005260406000206000915054906101000a900460ff1681565b610a9b610d05565b73ffffffffffffffffffffffffffffffffffffffff16610ab96109d3565b73ffffffffffffffffffffffffffffffffffffffff1614610b0f576040517f08c379a0000000000000000000000000000000000000000000000000000000008152600401610b069061138d565b60405180910390fd5b600060065411610b54576040517f08c379a0000000000000000000000000000000000000000000000000000000008152600401610b4b90611465565b60405180910390fd5b60003373ffffffffffffffffffffffffffffffffffffffff16600654604051610b7c906114b6565b60006040518083038185875af1925050503d8060008114610bb9576040519150601f19603f3d011682016040523d82523d6000602084013e610bbe565b606091505b5050905080610c02576040517f08c379a0000000000000000000000000000000000000000000000000000000008152600401610bf990611517565b60405180910390fd5b600060068190555050565b610c15610d05565b73ffffffffffffffffffffffffffffffffffffffff16610c336109d3565b73ffffffffffffffffffffffffffffffffffffffff1614610c89576040517f08c379a0000000000000000000000000000000000000000000000000000000008152600401610c809061138d565b60405180910390fd5b600073ffffffffffffffffffffffffffffffffffffffff168173ffffffffffffffffffffffffffffffffffffffff161415610cf9576040517f08c379a0000000000000000000000000000000000000000000000000000000008152600401610cf0906115d2565b60405180910390fd5b610d0281610d0d565b50565b600033905090565b60008060009054906101000a900473ffffffffffffffffffffffffffffffffffffffff169050816000806101000a81548173ffffffffffffffffffffffffffffffffffffffff021916908373ffffffffffffffffffffffffffffffffffffffff1602179055508173ffffffffffffffffffffffffffffffffffffffff168173ffffffffffffffffffffffffffffffffffffffff167f8be0079c531659141344cd1fd0a4f28419497f9722a3daafe3b4186f6b6457e060405160405180910390a35050565b600080fd5b600073ffffffffffffffffffffffffffffffffffffffff82169050919050565b6000610e0182610dd6565b9050919050565b610e1181610df6565b8114610e1c57600080fd5b50565b600081359050610e2e81610e08565b92915050565b600060208284031215610e4a57610e49610dd1565b5b6000610e5884828501610e1f565b91505092915050565b6000819050919050565b610e7481610e61565b8114610e7f57600080fd5b50565b600081359050610e9181610e6b565b92915050565b600060208284031215610ead57610eac610dd1565b5b6000610ebb84828501610e82565b91505092915050565b610ecd81610e61565b82525050565b6000602082019050610ee86000830184610ec4565b92915050565b610ef781610df6565b82525050565b6000602082019050610f126000830184610eee565b92915050565b60008060408385031215610f2f57610f2e610dd1565b5b6000610f3d85828601610e1f565b9250506020610f4e85828601610e82565b9150509250929050565b6000606082019050610f6d6000830186610eee565b610f7a6020830185610eee565b610f876040830184610ec4565b949350505050565b60008115159050919050565b610fa481610f8f565b82525050565b6000602082019050610fbf6000830184610f9b565b92915050565b600082825260208201905092915050565b7f696e73756666696369616e7420616d6f756e7400000000000000000000000000600082015250565b600061100c601383610fc5565b915061101782610fd6565b602082019050919050565b6000602082019050818103600083015261103b81610fff565b9050919050565b7f746865207265636569766572206973206e6f742061206d656d62657200000000600082015250565b6000611078601c83610fc5565b915061108382611042565b602082019050919050565b600060208201905081810360008301526110a78161106b565b9050919050565b7f796f752063616e6e6f742073656e6420646f6e6174696f6e20746f20796f757260008201527f73656c6600000000000000000000000000000000000000000000000000000000602082015250565b600061110a602483610fc5565b9150611115826110ae565b604082019050919050565b60006020820190508181036000830152611139816110fd565b9050919050565b7f4e487b7100000000000000000000000000000000000000000000000000000000600052601160045260246000fd5b600061117a82610e61565b915061118583610e61565b9250817fffffffffffffffffffffffffffffffffffffffffffffffffffffffffffffffff04831182151516156111be576111bd611140565b5b828202905092915050565b7f4e487b7100000000000000000000000000000000000000000000000000000000600052601260045260246000fd5b600061120382610e61565b915061120e83610e61565b92508261121e5761121d6111c9565b5b828204905092915050565b600061123482610e61565b915061123f83610e61565b9250827fffffffffffffffffffffffffffffffffffffffffffffffffffffffffffffffff0382111561127457611273611140565b5b828201905092915050565b600061128a82610e61565b915061129583610e61565b9250828210156112a8576112a7611140565b5b828203905092915050565b60006112be82610e61565b91507fffffffffffffffffffffffffffffffffffffffffffffffffffffffffffffffff8214156112f1576112f0611140565b5b600182019050919050565b60006080820190506113116000830187610ec4565b61131e6020830186610eee565b61132b6040830185610eee565b6113386060830184610ec4565b95945050505050565b7f4f776e61626c653a2063616c6c6572206973206e6f7420746865206f776e6572600082015250565b6000611377602083610fc5565b915061138282611341565b602082019050919050565b600060208201905081810360008301526113a68161136a565b9050919050565b7f796f7520617265206e6f742061206d656d626572000000000000000000000000600082015250565b60006113e3601483610fc5565b91506113ee826113ad565b602082019050919050565b60006020820190508181036000830152611412816113d6565b9050919050565b7f696e73756666696369616e742062616c616e6365000000000000000000000000600082015250565b600061144f601483610fc5565b915061145a82611419565b602082019050919050565b6000602082019050818103600083015261147e81611442565b9050919050565b600081905092915050565b50565b60006114a0600083611485565b91506114ab82611490565b600082019050919050565b60006114c182611493565b9150819050919050565b7f66756e64207472616e73666572206661696c6564000000000000000000000000600082015250565b6000611501601483610fc5565b915061150c826114cb565b602082019050919050565b60006020820190508181036000830152611530816114f4565b9050919050565b600060408201905061154c6000830185610eee565b6115596020830184610ec4565b9392505050565b7f4f776e61626c653a206e6577206f776e657220697320746865207a65726f206160008201527f6464726573730000000000000000000000000000000000000000000000000000602082015250565b60006115bc602683610fc5565b91506115c782611560565b604082019050919050565b600060208201905081810360008301526115eb816115af565b905091905056fea2646970667358221220732ed3de5835358e762bb8c01031fcda62f551ff9c517e68e41a1b387897d89e64736f6c63430008090033",
  "immutableReferences": {},
  "source": "// SPDX-License-Identifier: MIT\npragma solidity >=0.4.22 <0.9.0;\n\nimport \"@openzeppelin/contracts/access/Ownable.sol\";\n\ncontract Donations is Ownable {\n    struct Donation {\n        address donor;\n        address receiver;\n        uint256 amount;\n    }\n    mapping(address => mapping(uint256 => Donation)) public donations;\n    mapping(address => uint256) public totalDonations;\n    mapping(address => bool) public isMember;\n    mapping(address => uint256) public balanceOf;\n\n    uint256 commissionRate = 5;\n    uint256 totalCommissionBalance;\n\n    event DonationMade(\n        uint256 donationId,\n        address donor,\n        address receiver,\n        uint256 amount\n    );\n    event WithdrawalMade(address member, uint256 amount);\n\n    constructor() Ownable() {}\n\n    function donate(address receiver) public payable {\n        require(msg.value > 0, \"insufficiant amount\");\n        require(isMember[receiver], \"the receiver is not a member\");\n        require(receiver != msg.sender, \"you cannot send donation to yourself\");\n        uint256 commission = (msg.value * commissionRate) / 100;\n        totalCommissionBalance += commission;\n        balanceOf[receiver] += msg.value - commission;\n        uint256 donationId = totalDonations[receiver]++;\n        donations[receiver][donationId] = Donation(\n            msg.sender,\n            receiver,\n            msg.value\n        );\n        emit DonationMade(donationId, msg.sender, receiver, msg.value);\n    }\n\n    function withdraw() public {\n        require(isMember[msg.sender], \"you are not a member\");\n        require(balanceOf[msg.sender] > 0, \"insufficiant balance\");\n        uint256 balance = balanceOf[msg.sender];\n        (bool success, ) = msg.sender.call{value: balance}(\"\");\n        require(success, \"fund transfer failed\");\n        balanceOf[msg.sender] = 0;\n        emit WithdrawalMade(msg.sender, balance);\n    }\n\n    function ownerWithdrawal() public onlyOwner {\n        require(totalCommissionBalance > 0, \"insufficiant balance\");\n        (bool success, ) = msg.sender.call{value: totalCommissionBalance}(\"\");\n        require(success, \"fund transfer failed\");\n        totalCommissionBalance = 0;\n    }\n\n    function updateCommissionRate(uint256 newCommissionRate) public onlyOwner {\n        commissionRate = newCommissionRate;\n    }\n}\n",
  "sourcePath": "/Users/yash/Development/blockchain_projects/buymecoffee/smart_contracts/contracts/Donations.sol",
  "compiler": {
    "name": "solc",
    "version": "0.8.9+commit.e5eed63a.Emscripten.clang"
  },
  "schemaVersion": "3.4.3",
  "updatedAt": "2022-03-02T14:34:45.935Z",
  "networkType": "ethereum",
  "devdoc": {
    "kind": "dev",
    "methods": {
      "owner()": {
        "details": "Returns the address of the current owner."
      },
      "renounceOwnership()": {
        "details": "Leaves the contract without owner. It will not be possible to call `onlyOwner` functions anymore. Can only be called by the current owner. NOTE: Renouncing ownership will leave the contract without an owner, thereby removing any functionality that is only available to the owner."
      },
      "transferOwnership(address)": {
        "details": "Transfers ownership of the contract to a new account (`newOwner`). Can only be called by the current owner."
      }
    },
    "version": 1
  },
  "userdoc": {
    "kind": "user",
    "methods": {},
    "version": 1
  }
}