{
  "contractName": "Donations",
  "abi": [
    {
      "inputs": [
        {
          "internalType": "address",
          "name": "_newSigner",
          "type": "address"
        }
      ],
      "stateMutability": "nonpayable",
      "type": "constructor"
    },
    {
      "anonymous": false,
      "inputs": [
        {
          "indexed": false,
          "internalType": "uint256",
          "name": "rate",
          "type": "uint256"
        }
      ],
      "name": "CommissionRateChange",
      "type": "event"
    },
    {
      "anonymous": false,
      "inputs": [
        {
          "indexed": false,
          "internalType": "uint256",
          "name": "donationId",
          "type": "uint256"
        },
        {
          "indexed": false,
          "internalType": "address",
          "name": "donor",
          "type": "address"
        },
        {
          "indexed": false,
          "internalType": "address",
          "name": "receiver",
          "type": "address"
        },
        {
          "indexed": false,
          "internalType": "uint256",
          "name": "amount",
          "type": "uint256"
        }
      ],
      "name": "DonationMade",
      "type": "event"
    },
    {
      "anonymous": false,
      "inputs": [
        {
          "indexed": false,
          "internalType": "address",
          "name": "member",
          "type": "address"
        },
        {
          "indexed": false,
          "internalType": "bool",
          "name": "status",
          "type": "bool"
        }
      ],
      "name": "ForceDisabledStatusChange",
      "type": "event"
    },
    {
      "anonymous": false,
      "inputs": [
        {
          "indexed": false,
          "internalType": "address",
          "name": "member",
          "type": "address"
        },
        {
          "indexed": false,
          "internalType": "bool",
          "name": "status",
          "type": "bool"
        },
        {
          "indexed": false,
          "internalType": "uint256",
          "name": "nonce",
          "type": "uint256"
        }
      ],
      "name": "MemberStatusChange",
      "type": "event"
    },
    {
      "anonymous": false,
      "inputs": [
        {
          "indexed": true,
          "internalType": "address",
          "name": "previousOwner",
          "type": "address"
        },
        {
          "indexed": true,
          "internalType": "address",
          "name": "newOwner",
          "type": "address"
        }
      ],
      "name": "OwnershipTransferred",
      "type": "event"
    },
    {
      "anonymous": false,
      "inputs": [
        {
          "indexed": false,
          "internalType": "address",
          "name": "member",
          "type": "address"
        },
        {
          "indexed": false,
          "internalType": "uint256",
          "name": "amount",
          "type": "uint256"
        }
      ],
      "name": "WithdrawalMade",
      "type": "event"
    },
    {
      "inputs": [
        {
          "internalType": "address",
          "name": "",
          "type": "address"
        }
      ],
      "name": "balanceOf",
      "outputs": [
        {
          "internalType": "uint256",
          "name": "",
          "type": "uint256"
        }
      ],
      "stateMutability": "view",
      "type": "function",
      "constant": true
    },
    {
      "inputs": [],
      "name": "commissionRate",
      "outputs": [
        {
          "internalType": "uint256",
          "name": "",
          "type": "uint256"
        }
      ],
      "stateMutability": "view",
      "type": "function",
      "constant": true
    },
    {
      "inputs": [
        {
          "internalType": "address",
          "name": "",
          "type": "address"
        },
        {
          "internalType": "uint256",
          "name": "",
          "type": "uint256"
        }
      ],
      "name": "donations",
      "outputs": [
        {
          "internalType": "address",
          "name": "donor",
          "type": "address"
        },
        {
          "internalType": "address",
          "name": "receiver",
          "type": "address"
        },
        {
          "internalType": "uint256",
          "name": "amount",
          "type": "uint256"
        }
      ],
      "stateMutability": "view",
      "type": "function",
      "constant": true
    },
    {
      "inputs": [
        {
          "internalType": "address",
          "name": "",
          "type": "address"
        }
      ],
      "name": "forceDisabled",
      "outputs": [
        {
          "internalType": "bool",
          "name": "",
          "type": "bool"
        }
      ],
      "stateMutability": "view",
      "type": "function",
      "constant": true
    },
    {
      "inputs": [
        {
          "internalType": "address",
          "name": "",
          "type": "address"
        }
      ],
      "name": "isMember",
      "outputs": [
        {
          "internalType": "bool",
          "name": "",
          "type": "bool"
        }
      ],
      "stateMutability": "view",
      "type": "function",
      "constant": true
    },
    {
      "inputs": [
        {
          "internalType": "address",
          "name": "",
          "type": "address"
        }
      ],
      "name": "nonceUsed",
      "outputs": [
        {
          "internalType": "uint256",
          "name": "",
          "type": "uint256"
        }
      ],
      "stateMutability": "view",
      "type": "function",
      "constant": true
    },
    {
      "inputs": [],
      "name": "owner",
      "outputs": [
        {
          "internalType": "address",
          "name": "",
          "type": "address"
        }
      ],
      "stateMutability": "view",
      "type": "function",
      "constant": true
    },
    {
      "inputs": [],
      "name": "renounceOwnership",
      "outputs": [],
      "stateMutability": "nonpayable",
      "type": "function"
    },
    {
      "inputs": [],
      "name": "totalCommissionBalance",
      "outputs": [
        {
          "internalType": "uint256",
          "name": "",
          "type": "uint256"
        }
      ],
      "stateMutability": "view",
      "type": "function",
      "constant": true
    },
    {
      "inputs": [
        {
          "internalType": "address",
          "name": "",
          "type": "address"
        }
      ],
      "name": "totalDonations",
      "outputs": [
        {
          "internalType": "uint256",
          "name": "",
          "type": "uint256"
        }
      ],
      "stateMutability": "view",
      "type": "function",
      "constant": true
    },
    {
      "inputs": [
        {
          "internalType": "address",
          "name": "newOwner",
          "type": "address"
        }
      ],
      "name": "transferOwnership",
      "outputs": [],
      "stateMutability": "nonpayable",
      "type": "function"
    },
    {
      "inputs": [
        {
          "internalType": "address",
          "name": "_newSigner",
          "type": "address"
        }
      ],
      "name": "setSigner",
      "outputs": [],
      "stateMutability": "nonpayable",
      "type": "function"
    },
    {
      "inputs": [
        {
          "internalType": "address",
          "name": "member",
          "type": "address"
        },
        {
          "internalType": "bool",
          "name": "status",
          "type": "bool"
        }
      ],
      "name": "updateForceDisableStatus",
      "outputs": [],
      "stateMutability": "nonpayable",
      "type": "function"
    },
    {
      "inputs": [
        {
          "internalType": "bytes",
          "name": "_signature",
          "type": "bytes"
        },
        {
          "internalType": "bool",
          "name": "_status",
          "type": "bool"
        },
        {
          "internalType": "uint256",
          "name": "_nonce",
          "type": "uint256"
        }
      ],
      "name": "setMemberStatus",
      "outputs": [],
      "stateMutability": "nonpayable",
      "type": "function"
    },
    {
      "inputs": [
        {
          "internalType": "address",
          "name": "receiver",
          "type": "address"
        }
      ],
      "name": "donate",
      "outputs": [],
      "stateMutability": "payable",
      "type": "function",
      "payable": true
    },
    {
      "inputs": [],
      "name": "withdraw",
      "outputs": [],
      "stateMutability": "nonpayable",
      "type": "function"
    },
    {
      "inputs": [],
      "name": "ownerWithdrawal",
      "outputs": [],
      "stateMutability": "nonpayable",
      "type": "function"
    },
    {
      "inputs": [
        {
          "internalType": "uint256",
          "name": "newCommissionRate",
          "type": "uint256"
        }
      ],
      "name": "updateCommissionRate",
      "outputs": [],
      "stateMutability": "nonpayable",
      "type": "function"
    }
  ],
  "bytecode": "0x608060405261c3506007553480156200001757600080fd5b5060405162002f2c38038062002f2c83398181016040528101906200003d9190620001db565b6200005d62000051620000a560201b60201c565b620000ad60201b60201c565b80600960006101000a81548173ffffffffffffffffffffffffffffffffffffffff021916908373ffffffffffffffffffffffffffffffffffffffff160217905550506200020d565b600033905090565b60008060009054906101000a900473ffffffffffffffffffffffffffffffffffffffff169050816000806101000a81548173ffffffffffffffffffffffffffffffffffffffff021916908373ffffffffffffffffffffffffffffffffffffffff1602179055508173ffffffffffffffffffffffffffffffffffffffff168173ffffffffffffffffffffffffffffffffffffffff167f8be0079c531659141344cd1fd0a4f28419497f9722a3daafe3b4186f6b6457e060405160405180910390a35050565b600080fd5b600073ffffffffffffffffffffffffffffffffffffffff82169050919050565b6000620001a38262000176565b9050919050565b620001b58162000196565b8114620001c157600080fd5b50565b600081519050620001d581620001aa565b92915050565b600060208284031215620001f457620001f362000171565b5b60006200020484828501620001c4565b91505092915050565b612d0f806200021d6000396000f3fe6080604052600436106101075760003560e01c8063715018a611610095578063a230c52411610064578063a230c5241461035a578063f0c08ca814610397578063f27a0447146103c2578063f2fde38b146103d9578063fe5907971461040257610107565b8063715018a6146102b0578063829445e7146102c75780638da5cb5b146102f057806395086ed11461031b57610107565b80633ccfd60b116100dc5780633ccfd60b146101cb5780635a4c38a7146101e25780635ea1d6f81461021f5780636c19e7831461024a57806370a082311461027357610107565b8062362a951461010c578062fa3d50146101285780630575b15e14610151578063242e0d281461018e575b600080fd5b61012660048036038101906101219190611b4f565b61042b565b005b34801561013457600080fd5b5061014f600480360381019061014a9190611bb2565b61085c565b005b34801561015d57600080fd5b5061017860048036038101906101739190611b4f565b610919565b6040516101859190611bfa565b60405180910390f35b34801561019a57600080fd5b506101b560048036038101906101b09190611b4f565b610939565b6040516101c29190611c24565b60405180910390f35b3480156101d757600080fd5b506101e0610951565b005b3480156101ee57600080fd5b5061020960048036038101906102049190611b4f565b610c5e565b6040516102169190611c24565b60405180910390f35b34801561022b57600080fd5b50610234610c76565b6040516102419190611c24565b60405180910390f35b34801561025657600080fd5b50610271600480360381019061026c9190611b4f565b610c7c565b005b34801561027f57600080fd5b5061029a60048036038101906102959190611b4f565b610d3c565b6040516102a79190611c24565b60405180910390f35b3480156102bc57600080fd5b506102c5610d54565b005b3480156102d357600080fd5b506102ee60048036038101906102e99190611db1565b610ddc565b005b3480156102fc57600080fd5b506103056110ab565b6040516103129190611e2f565b60405180910390f35b34801561032757600080fd5b50610342600480360381019061033d9190611e4a565b6110d4565b60405161035193929190611e8a565b60405180910390f35b34801561036657600080fd5b50610381600480360381019061037c9190611b4f565b61114b565b60405161038e9190611bfa565b60405180910390f35b3480156103a357600080fd5b506103ac61116b565b6040516103b99190611c24565b60405180910390f35b3480156103ce57600080fd5b506103d7611171565b005b3480156103e557600080fd5b5061040060048036038101906103fb9190611b4f565b6112eb565b005b34801561040e57600080fd5b5061042960048036038101906104249190611ec1565b6113e3565b005b6000341161046e576040517f08c379a000000000000000000000000000000000000000000000000000000000815260040161046590611f5e565b60405180910390fd5b600360008273ffffffffffffffffffffffffffffffffffffffff1673ffffffffffffffffffffffffffffffffffffffff16815260200190815260200160002060009054906101000a900460ff166104fa576040517f08c379a00000000000000000000000000000000000000000000000000000000081526004016104f190611fca565b60405180910390fd5b600660008273ffffffffffffffffffffffffffffffffffffffff1673ffffffffffffffffffffffffffffffffffffffff16815260200190815260200160002060009054906101000a900460ff1615610587576040517f08c379a000000000000000000000000000000000000000000000000000000000815260040161057e9061205c565b60405180910390fd5b3373ffffffffffffffffffffffffffffffffffffffff168173ffffffffffffffffffffffffffffffffffffffff1614156105f6576040517f08c379a00000000000000000000000000000000000000000000000000000000081526004016105ed906120ee565b60405180910390fd5b6000620f42406007543461060a919061213d565b61061491906121c6565b9050806008600082825461062891906121f7565b92505081905550803461063b919061224d565b600460008473ffffffffffffffffffffffffffffffffffffffff1673ffffffffffffffffffffffffffffffffffffffff168152602001908152602001600020600082825461068991906121f7565b925050819055506000600260008473ffffffffffffffffffffffffffffffffffffffff1673ffffffffffffffffffffffffffffffffffffffff16815260200190815260200160002060008154809291906106e290612281565b91905055905060405180606001604052803373ffffffffffffffffffffffffffffffffffffffff1681526020018473ffffffffffffffffffffffffffffffffffffffff16815260200134815250600160008573ffffffffffffffffffffffffffffffffffffffff1673ffffffffffffffffffffffffffffffffffffffff168152602001908152602001600020600083815260200190815260200160002060008201518160000160006101000a81548173ffffffffffffffffffffffffffffffffffffffff021916908373ffffffffffffffffffffffffffffffffffffffff16021790555060208201518160010160006101000a81548173ffffffffffffffffffffffffffffffffffffffff021916908373ffffffffffffffffffffffffffffffffffffffff160217905550604082015181600201559050507f72ea702afc24965f735ac4ac552f859b352084ad99f47a425a691630814014fe8133853460405161084f94939291906122ca565b60405180910390a1505050565b6108646115f6565b73ffffffffffffffffffffffffffffffffffffffff166108826110ab565b73ffffffffffffffffffffffffffffffffffffffff16146108d8576040517f08c379a00000000000000000000000000000000000000000000000000000000081526004016108cf9061235b565b60405180910390fd5b806007819055507f4b1009c71db37991b3ebb3740c62538aa7ea9225bab49210fc46524d969a244e8160405161090e9190611c24565b60405180910390a150565b60066020528060005260406000206000915054906101000a900460ff1681565b60056020528060005260406000206000915090505481565b600360003373ffffffffffffffffffffffffffffffffffffffff1673ffffffffffffffffffffffffffffffffffffffff16815260200190815260200160002060009054906101000a900460ff166109dd576040517f08c379a00000000000000000000000000000000000000000000000000000000081526004016109d4906123c7565b60405180910390fd5b600660003373ffffffffffffffffffffffffffffffffffffffff1673ffffffffffffffffffffffffffffffffffffffff16815260200190815260200160002060009054906101000a900460ff1615610a6a576040517f08c379a0000000000000000000000000000000000000000000000000000000008152600401610a6190612433565b60405180910390fd5b6000600460003373ffffffffffffffffffffffffffffffffffffffff1673ffffffffffffffffffffffffffffffffffffffff1681526020019081526020016000205411610aec576040517f08c379a0000000000000000000000000000000000000000000000000000000008152600401610ae39061249f565b60405180910390fd5b6000600460003373ffffffffffffffffffffffffffffffffffffffff1673ffffffffffffffffffffffffffffffffffffffff16815260200190815260200160002054905060003373ffffffffffffffffffffffffffffffffffffffff1682604051610b56906124f0565b60006040518083038185875af1925050503d8060008114610b93576040519150601f19603f3d011682016040523d82523d6000602084013e610b98565b606091505b5050905080610bdc576040517f08c379a0000000000000000000000000000000000000000000000000000000008152600401610bd390612551565b60405180910390fd5b6000600460003373ffffffffffffffffffffffffffffffffffffffff1673ffffffffffffffffffffffffffffffffffffffff168152602001908152602001600020819055507fbc158bb64f05d6383aea69bbb0b20c1bbf4b7a18f63359c5649b7c39e29d38843383604051610c52929190612571565b60405180910390a15050565b60026020528060005260406000206000915090505481565b60075481565b610c846115f6565b73ffffffffffffffffffffffffffffffffffffffff16610ca26110ab565b73ffffffffffffffffffffffffffffffffffffffff1614610cf8576040517f08c379a0000000000000000000000000000000000000000000000000000000008152600401610cef9061235b565b60405180910390fd5b80600960006101000a81548173ffffffffffffffffffffffffffffffffffffffff021916908373ffffffffffffffffffffffffffffffffffffffff16021790555050565b60046020528060005260406000206000915090505481565b610d5c6115f6565b73ffffffffffffffffffffffffffffffffffffffff16610d7a6110ab565b73ffffffffffffffffffffffffffffffffffffffff1614610dd0576040517f08c379a0000000000000000000000000000000000000000000000000000000008152600401610dc79061235b565b60405180910390fd5b610dda60006115fe565b565b80600560003373ffffffffffffffffffffffffffffffffffffffff1673ffffffffffffffffffffffffffffffffffffffff1681526020019081526020016000205410610e5d576040517f08c379a0000000000000000000000000000000000000000000000000000000008152600401610e54906125e6565b60405180910390fd5b81151515600360003373ffffffffffffffffffffffffffffffffffffffff1673ffffffffffffffffffffffffffffffffffffffff16815260200190815260200160002060009054906101000a900460ff16151514610ef0576040517f08c379a0000000000000000000000000000000000000000000000000000000008152600401610ee790612652565b60405180910390fd5b6000338383604051602001610f0793929190612723565b6040516020818303038152906040528051906020012090506000610f2a826116c2565b9050600960009054906101000a900473ffffffffffffffffffffffffffffffffffffffff1673ffffffffffffffffffffffffffffffffffffffff16610f7886836116f290919063ffffffff16565b73ffffffffffffffffffffffffffffffffffffffff1614610fce576040517f08c379a0000000000000000000000000000000000000000000000000000000008152600401610fc5906127ac565b60405180910390fd5b83600360003373ffffffffffffffffffffffffffffffffffffffff1673ffffffffffffffffffffffffffffffffffffffff16815260200190815260200160002060006101000a81548160ff02191690831515021790555082600560003373ffffffffffffffffffffffffffffffffffffffff1673ffffffffffffffffffffffffffffffffffffffff168152602001908152602001600020819055507fb7a6e90e067bf9b432368ee34269b4adb74ecc365e9bf5e76f40a0cd67eb6e1733858560405161109c939291906127cc565b60405180910390a15050505050565b60008060009054906101000a900473ffffffffffffffffffffffffffffffffffffffff16905090565b6001602052816000526040600020602052806000526040600020600091509150508060000160009054906101000a900473ffffffffffffffffffffffffffffffffffffffff16908060010160009054906101000a900473ffffffffffffffffffffffffffffffffffffffff16908060020154905083565b60036020528060005260406000206000915054906101000a900460ff1681565b60085481565b6111796115f6565b73ffffffffffffffffffffffffffffffffffffffff166111976110ab565b73ffffffffffffffffffffffffffffffffffffffff16146111ed576040517f08c379a00000000000000000000000000000000000000000000000000000000081526004016111e49061235b565b60405180910390fd5b600060085411611232576040517f08c379a00000000000000000000000000000000000000000000000000000000081526004016112299061249f565b60405180910390fd5b60003373ffffffffffffffffffffffffffffffffffffffff1660085460405161125a906124f0565b60006040518083038185875af1925050503d8060008114611297576040519150601f19603f3d011682016040523d82523d6000602084013e61129c565b606091505b50509050806112e0576040517f08c379a00000000000000000000000000000000000000000000000000000000081526004016112d790612551565b60405180910390fd5b600060088190555050565b6112f36115f6565b73ffffffffffffffffffffffffffffffffffffffff166113116110ab565b73ffffffffffffffffffffffffffffffffffffffff1614611367576040517f08c379a000000000000000000000000000000000000000000000000000000000815260040161135e9061235b565b60405180910390fd5b600073ffffffffffffffffffffffffffffffffffffffff168173ffffffffffffffffffffffffffffffffffffffff1614156113d7576040517f08c379a00000000000000000000000000000000000000000000000000000000081526004016113ce90612875565b60405180910390fd5b6113e0816115fe565b50565b6113eb6115f6565b73ffffffffffffffffffffffffffffffffffffffff166114096110ab565b73ffffffffffffffffffffffffffffffffffffffff161461145f576040517f08c379a00000000000000000000000000000000000000000000000000000000081526004016114569061235b565b60405180910390fd5b600073ffffffffffffffffffffffffffffffffffffffff168273ffffffffffffffffffffffffffffffffffffffff1614156114cf576040517f08c379a00000000000000000000000000000000000000000000000000000000081526004016114c6906128e1565b60405180910390fd5b801515600660008473ffffffffffffffffffffffffffffffffffffffff1673ffffffffffffffffffffffffffffffffffffffff16815260200190815260200160002060009054906101000a900460ff1615151415611562576040517f08c379a00000000000000000000000000000000000000000000000000000000081526004016115599061294d565b60405180910390fd5b80600660008473ffffffffffffffffffffffffffffffffffffffff1673ffffffffffffffffffffffffffffffffffffffff16815260200190815260200160002060006101000a81548160ff0219169083151502179055507fd07959b169d98cf54efd6842908afb7a327d33b8addafb0f8b2568a62cbdaac582826040516115ea92919061296d565b60405180910390a15050565b600033905090565b60008060009054906101000a900473ffffffffffffffffffffffffffffffffffffffff169050816000806101000a81548173ffffffffffffffffffffffffffffffffffffffff021916908373ffffffffffffffffffffffffffffffffffffffff1602179055508173ffffffffffffffffffffffffffffffffffffffff168173ffffffffffffffffffffffffffffffffffffffff167f8be0079c531659141344cd1fd0a4f28419497f9722a3daafe3b4186f6b6457e060405160405180910390a35050565b6000816040516020016116d59190612a18565b604051602081830303815290604052805190602001209050919050565b60008060006117018585611719565b9150915061170e8161179c565b819250505092915050565b60008060418351141561175b5760008060006020860151925060408601519150606086015160001a905061174f87828585611971565b94509450505050611795565b60408351141561178c576000806020850151915060408501519050611781868383611a7e565b935093505050611795565b60006002915091505b9250929050565b600060048111156117b0576117af612a3e565b5b8160048111156117c3576117c2612a3e565b5b14156117ce5761196e565b600160048111156117e2576117e1612a3e565b5b8160048111156117f5576117f4612a3e565b5b1415611836576040517f08c379a000000000000000000000000000000000000000000000000000000000815260040161182d90612ab9565b60405180910390fd5b6002600481111561184a57611849612a3e565b5b81600481111561185d5761185c612a3e565b5b141561189e576040517f08c379a000000000000000000000000000000000000000000000000000000000815260040161189590612b25565b60405180910390fd5b600360048111156118b2576118b1612a3e565b5b8160048111156118c5576118c4612a3e565b5b1415611906576040517f08c379a00000000000000000000000000000000000000000000000000000000081526004016118fd90612bb7565b60405180910390fd5b60048081111561191957611918612a3e565b5b81600481111561192c5761192b612a3e565b5b141561196d576040517f08c379a000000000000000000000000000000000000000000000000000000000815260040161196490612c49565b60405180910390fd5b5b50565b6000807f7fffffffffffffffffffffffffffffff5d576e7357a4501ddfe92f46681b20a08360001c11156119ac576000600391509150611a75565b601b8560ff16141580156119c45750601c8560ff1614155b156119d6576000600491509150611a75565b6000600187878787604051600081526020016040526040516119fb9493929190612c94565b6020604051602081039080840390855afa158015611a1d573d6000803e3d6000fd5b505050602060405103519050600073ffffffffffffffffffffffffffffffffffffffff168173ffffffffffffffffffffffffffffffffffffffff161415611a6c57600060019250925050611a75565b80600092509250505b94509492505050565b60008060007f7fffffffffffffffffffffffffffffffffffffffffffffffffffffffffffffff60001b841690506000601b60ff8660001c901c611ac191906121f7565b9050611acf87828885611971565b935093505050935093915050565b6000604051905090565b600080fd5b600080fd5b600073ffffffffffffffffffffffffffffffffffffffff82169050919050565b6000611b1c82611af1565b9050919050565b611b2c81611b11565b8114611b3757600080fd5b50565b600081359050611b4981611b23565b92915050565b600060208284031215611b6557611b64611ae7565b5b6000611b7384828501611b3a565b91505092915050565b6000819050919050565b611b8f81611b7c565b8114611b9a57600080fd5b50565b600081359050611bac81611b86565b92915050565b600060208284031215611bc857611bc7611ae7565b5b6000611bd684828501611b9d565b91505092915050565b60008115159050919050565b611bf481611bdf565b82525050565b6000602082019050611c0f6000830184611beb565b92915050565b611c1e81611b7c565b82525050565b6000602082019050611c396000830184611c15565b92915050565b600080fd5b600080fd5b6000601f19601f8301169050919050565b7f4e487b7100000000000000000000000000000000000000000000000000000000600052604160045260246000fd5b611c9282611c49565b810181811067ffffffffffffffff82111715611cb157611cb0611c5a565b5b80604052505050565b6000611cc4611add565b9050611cd08282611c89565b919050565b600067ffffffffffffffff821115611cf057611cef611c5a565b5b611cf982611c49565b9050602081019050919050565b82818337600083830152505050565b6000611d28611d2384611cd5565b611cba565b905082815260208101848484011115611d4457611d43611c44565b5b611d4f848285611d06565b509392505050565b600082601f830112611d6c57611d6b611c3f565b5b8135611d7c848260208601611d15565b91505092915050565b611d8e81611bdf565b8114611d9957600080fd5b50565b600081359050611dab81611d85565b92915050565b600080600060608486031215611dca57611dc9611ae7565b5b600084013567ffffffffffffffff811115611de857611de7611aec565b5b611df486828701611d57565b9350506020611e0586828701611d9c565b9250506040611e1686828701611b9d565b9150509250925092565b611e2981611b11565b82525050565b6000602082019050611e446000830184611e20565b92915050565b60008060408385031215611e6157611e60611ae7565b5b6000611e6f85828601611b3a565b9250506020611e8085828601611b9d565b9150509250929050565b6000606082019050611e9f6000830186611e20565b611eac6020830185611e20565b611eb96040830184611c15565b949350505050565b60008060408385031215611ed857611ed7611ae7565b5b6000611ee685828601611b3a565b9250506020611ef785828601611d9c565b9150509250929050565b600082825260208201905092915050565b7f696e73756666696369616e7420616d6f756e7400000000000000000000000000600082015250565b6000611f48601383611f01565b9150611f5382611f12565b602082019050919050565b60006020820190508181036000830152611f7781611f3b565b9050919050565b7f746865207265636569766572206973206e6f742061206d656d62657200000000600082015250565b6000611fb4601c83611f01565b9150611fbf82611f7e565b602082019050919050565b60006020820190508181036000830152611fe381611fa7565b9050919050565b7f7468652072656365697665722069732063757272656e746c792064697361626c60008201527f6564000000000000000000000000000000000000000000000000000000000000602082015250565b6000612046602283611f01565b915061205182611fea565b604082019050919050565b6000602082019050818103600083015261207581612039565b9050919050565b7f796f752063616e6e6f742073656e6420646f6e6174696f6e20746f20796f757260008201527f73656c6600000000000000000000000000000000000000000000000000000000602082015250565b60006120d8602483611f01565b91506120e38261207c565b604082019050919050565b60006020820190508181036000830152612107816120cb565b9050919050565b7f4e487b7100000000000000000000000000000000000000000000000000000000600052601160045260246000fd5b600061214882611b7c565b915061215383611b7c565b9250817fffffffffffffffffffffffffffffffffffffffffffffffffffffffffffffffff048311821515161561218c5761218b61210e565b5b828202905092915050565b7f4e487b7100000000000000000000000000000000000000000000000000000000600052601260045260246000fd5b60006121d182611b7c565b91506121dc83611b7c565b9250826121ec576121eb612197565b5b828204905092915050565b600061220282611b7c565b915061220d83611b7c565b9250827fffffffffffffffffffffffffffffffffffffffffffffffffffffffffffffffff038211156122425761224161210e565b5b828201905092915050565b600061225882611b7c565b915061226383611b7c565b9250828210156122765761227561210e565b5b828203905092915050565b600061228c82611b7c565b91507fffffffffffffffffffffffffffffffffffffffffffffffffffffffffffffffff8214156122bf576122be61210e565b5b600182019050919050565b60006080820190506122df6000830187611c15565b6122ec6020830186611e20565b6122f96040830185611e20565b6123066060830184611c15565b95945050505050565b7f4f776e61626c653a2063616c6c6572206973206e6f7420746865206f776e6572600082015250565b6000612345602083611f01565b91506123508261230f565b602082019050919050565b6000602082019050818103600083015261237481612338565b9050919050565b7f796f7520617265206e6f742061206d656d626572000000000000000000000000600082015250565b60006123b1601483611f01565b91506123bc8261237b565b602082019050919050565b600060208201905081810360008301526123e0816123a4565b9050919050565b7f796f75206172652063757272656e746c792064697361626c6564000000000000600082015250565b600061241d601a83611f01565b9150612428826123e7565b602082019050919050565b6000602082019050818103600083015261244c81612410565b9050919050565b7f696e73756666696369616e742062616c616e6365000000000000000000000000600082015250565b6000612489601483611f01565b915061249482612453565b602082019050919050565b600060208201905081810360008301526124b88161247c565b9050919050565b600081905092915050565b50565b60006124da6000836124bf565b91506124e5826124ca565b600082019050919050565b60006124fb826124cd565b9150819050919050565b7f66756e64207472616e73666572206661696c6564000000000000000000000000600082015250565b600061253b601483611f01565b915061254682612505565b602082019050919050565b6000602082019050818103600083015261256a8161252e565b9050919050565b60006040820190506125866000830185611e20565b6125936020830184611c15565b9392505050565b7f696e76616c6964206e6f6e636500000000000000000000000000000000000000600082015250565b60006125d0600d83611f01565b91506125db8261259a565b602082019050919050565b600060208201905081810360008301526125ff816125c3565b9050919050565b7f73746174757320616c7265616479207570646174656400000000000000000000600082015250565b600061263c601683611f01565b915061264782612606565b602082019050919050565b6000602082019050818103600083015261266b8161262f565b9050919050565b60008160601b9050919050565b600061268a82612672565b9050919050565b600061269c8261267f565b9050919050565b6126b46126af82611b11565b612691565b82525050565b60008160f81b9050919050565b60006126d2826126ba565b9050919050565b60006126e4826126c7565b9050919050565b6126fc6126f782611bdf565b6126d9565b82525050565b6000819050919050565b61271d61271882611b7c565b612702565b82525050565b600061272f82866126a3565b60148201915061273f82856126eb565b60018201915061274f828461270c565b602082019150819050949350505050565b7f696e76616c6964207369676e6174757265000000000000000000000000000000600082015250565b6000612796601183611f01565b91506127a182612760565b602082019050919050565b600060208201905081810360008301526127c581612789565b9050919050565b60006060820190506127e16000830186611e20565b6127ee6020830185611beb565b6127fb6040830184611c15565b949350505050565b7f4f776e61626c653a206e6577206f776e657220697320746865207a65726f206160008201527f6464726573730000000000000000000000000000000000000000000000000000602082015250565b600061285f602683611f01565b915061286a82612803565b604082019050919050565b6000602082019050818103600083015261288e81612852565b9050919050565b7f696e76616c6964206d656d626572206164647265737300000000000000000000600082015250565b60006128cb601683611f01565b91506128d682612895565b602082019050919050565b600060208201905081810360008301526128fa816128be565b9050919050565b7f616c726561647920757064617465640000000000000000000000000000000000600082015250565b6000612937600f83611f01565b915061294282612901565b602082019050919050565b600060208201905081810360008301526129668161292a565b9050919050565b60006040820190506129826000830185611e20565b61298f6020830184611beb565b9392505050565b600081905092915050565b7f19457468657265756d205369676e6564204d6573736167653a0a333200000000600082015250565b60006129d7601c83612996565b91506129e2826129a1565b601c82019050919050565b6000819050919050565b6000819050919050565b612a12612a0d826129ed565b6129f7565b82525050565b6000612a23826129ca565b9150612a2f8284612a01565b60208201915081905092915050565b7f4e487b7100000000000000000000000000000000000000000000000000000000600052602160045260246000fd5b7f45434453413a20696e76616c6964207369676e61747572650000000000000000600082015250565b6000612aa3601883611f01565b9150612aae82612a6d565b602082019050919050565b60006020820190508181036000830152612ad281612a96565b9050919050565b7f45434453413a20696e76616c6964207369676e6174757265206c656e67746800600082015250565b6000612b0f601f83611f01565b9150612b1a82612ad9565b602082019050919050565b60006020820190508181036000830152612b3e81612b02565b9050919050565b7f45434453413a20696e76616c6964207369676e6174757265202773272076616c60008201527f7565000000000000000000000000000000000000000000000000000000000000602082015250565b6000612ba1602283611f01565b9150612bac82612b45565b604082019050919050565b60006020820190508181036000830152612bd081612b94565b9050919050565b7f45434453413a20696e76616c6964207369676e6174757265202776272076616c60008201527f7565000000000000000000000000000000000000000000000000000000000000602082015250565b6000612c33602283611f01565b9150612c3e82612bd7565b604082019050919050565b60006020820190508181036000830152612c6281612c26565b9050919050565b612c72816129ed565b82525050565b600060ff82169050919050565b612c8e81612c78565b82525050565b6000608082019050612ca96000830187612c69565b612cb66020830186612c85565b612cc36040830185612c69565b612cd06060830184612c69565b9594505050505056fea2646970667358221220cdb2ee4db7740553ef1e9d934eb288dcfd948d96a9320d5e5c075912795c4e4e64736f6c63430008090033",
  "immutableReferences": {},
  "source": "// SPDX-License-Identifier: MIT\npragma solidity >=0.4.22 <0.9.0;\n\nimport \"@openzeppelin/contracts/access/Ownable.sol\";\nimport \"@openzeppelin/contracts/utils/cryptography/ECDSA.sol\";\n\ncontract Donations is Ownable {\n    using ECDSA for bytes32;\n\n    struct Donation {\n        address donor;\n        address receiver;\n        uint256 amount;\n    }\n\n    mapping(address => mapping(uint256 => Donation)) public donations;\n    mapping(address => uint256) public totalDonations;\n    mapping(address => bool) public isMember;\n    mapping(address => uint256) public balanceOf;\n    mapping(address => uint256) public nonceUsed;\n    mapping(address => bool) public forceDisabled;\n\n    uint256 public commissionRate = 50000;\n    uint256 public totalCommissionBalance;\n    address private _signer;\n\n    event DonationMade(\n        uint256 donationId,\n        address donor,\n        address receiver,\n        uint256 amount\n    );\n    event MemberStatusChange(address member, bool status, uint256 nonce);\n    event WithdrawalMade(address member, uint256 amount);\n    event CommissionRateChange(uint256 rate);\n    event ForceDisabledStatusChange(address member, bool status);\n\n    constructor(address _newSigner) Ownable() {\n        _signer = _newSigner;\n    }\n\n    function setSigner(address _newSigner) public onlyOwner {\n        _signer = _newSigner;\n    }\n\n    function updateForceDisableStatus(address member, bool status)\n        public\n        onlyOwner\n    {\n        require(member != address(0), \"invalid member address\");\n        require(forceDisabled[member] != status, \"already updated\");\n        forceDisabled[member] = status;\n        emit ForceDisabledStatusChange(member, status);\n    }\n\n    function setMemberStatus(\n        bytes memory _signature,\n        bool _status,\n        uint256 _nonce\n    ) public {\n        require(nonceUsed[msg.sender] < _nonce, \"invalid nonce\");\n        require(isMember[msg.sender] == !_status, \"status already updated\");\n        bytes32 hash = keccak256(abi.encodePacked(msg.sender, _status, _nonce));\n        bytes32 messageHash = hash.toEthSignedMessageHash();\n        require(\n            messageHash.recover(_signature) == _signer,\n            \"invalid signature\"\n        );\n        isMember[msg.sender] = _status;\n        nonceUsed[msg.sender] = _nonce;\n        emit MemberStatusChange(msg.sender, _status, _nonce);\n    }\n\n    function donate(address receiver) public payable {\n        require(msg.value > 0, \"insufficiant amount\");\n        require(isMember[receiver], \"the receiver is not a member\");\n        require(!forceDisabled[receiver], \"the receiver is currently disabled\");\n        require(receiver != msg.sender, \"you cannot send donation to yourself\");\n        uint256 commission = (msg.value * commissionRate) / 1000000;\n        totalCommissionBalance += commission;\n        balanceOf[receiver] += msg.value - commission;\n        uint256 donationId = totalDonations[receiver]++;\n        donations[receiver][donationId] = Donation(\n            msg.sender,\n            receiver,\n            msg.value\n        );\n        emit DonationMade(donationId, msg.sender, receiver, msg.value);\n    }\n\n    function withdraw() public {\n        require(isMember[msg.sender], \"you are not a member\");\n        require(!forceDisabled[msg.sender], \"you are currently disabled\");\n        require(balanceOf[msg.sender] > 0, \"insufficiant balance\");\n        uint256 balance = balanceOf[msg.sender];\n        (bool success, ) = msg.sender.call{value: balance}(\"\");\n        require(success, \"fund transfer failed\");\n        balanceOf[msg.sender] = 0;\n        emit WithdrawalMade(msg.sender, balance);\n    }\n\n    function ownerWithdrawal() public onlyOwner {\n        require(totalCommissionBalance > 0, \"insufficiant balance\");\n        (bool success, ) = msg.sender.call{value: totalCommissionBalance}(\"\");\n        require(success, \"fund transfer failed\");\n        totalCommissionBalance = 0;\n    }\n\n    function updateCommissionRate(uint256 newCommissionRate) public onlyOwner {\n        commissionRate = newCommissionRate;\n        emit CommissionRateChange(newCommissionRate);\n    }\n}\n",
  "sourcePath": "/Users/yash/Development/blockchain_projects/buymecoffee/smart_contracts/contracts/Donations.sol",
  "compiler": {
    "name": "solc",
    "version": "0.8.9+commit.e5eed63a.Emscripten.clang"
  },
  "schemaVersion": "3.4.3",
  "updatedAt": "2022-03-17T18:07:30.194Z",
  "networkType": "ethereum",
  "devdoc": {
    "kind": "dev",
    "methods": {
      "owner()": {
        "details": "Returns the address of the current owner."
      },
      "renounceOwnership()": {
        "details": "Leaves the contract without owner. It will not be possible to call `onlyOwner` functions anymore. Can only be called by the current owner. NOTE: Renouncing ownership will leave the contract without an owner, thereby removing any functionality that is only available to the owner."
      },
      "transferOwnership(address)": {
        "details": "Transfers ownership of the contract to a new account (`newOwner`). Can only be called by the current owner."
      }
    },
    "version": 1
  },
  "userdoc": {
    "kind": "user",
    "methods": {},
    "version": 1
  }
}