{
  "contractName": "Donations",
  "abi": [
    {
      "inputs": [
        {
          "internalType": "address",
          "name": "_newSigner",
          "type": "address"
        }
      ],
      "stateMutability": "nonpayable",
      "type": "constructor"
    },
    {
      "anonymous": false,
      "inputs": [
        {
          "indexed": false,
          "internalType": "uint256",
          "name": "donationId",
          "type": "uint256"
        },
        {
          "indexed": false,
          "internalType": "address",
          "name": "donor",
          "type": "address"
        },
        {
          "indexed": false,
          "internalType": "address",
          "name": "receiver",
          "type": "address"
        },
        {
          "indexed": false,
          "internalType": "uint256",
          "name": "amount",
          "type": "uint256"
        }
      ],
      "name": "DonationMade",
      "type": "event"
    },
    {
      "anonymous": false,
      "inputs": [
        {
          "indexed": false,
          "internalType": "address",
          "name": "member",
          "type": "address"
        },
        {
          "indexed": false,
          "internalType": "bool",
          "name": "status",
          "type": "bool"
        }
      ],
      "name": "MemberStatusChange",
      "type": "event"
    },
    {
      "anonymous": false,
      "inputs": [
        {
          "indexed": true,
          "internalType": "address",
          "name": "previousOwner",
          "type": "address"
        },
        {
          "indexed": true,
          "internalType": "address",
          "name": "newOwner",
          "type": "address"
        }
      ],
      "name": "OwnershipTransferred",
      "type": "event"
    },
    {
      "anonymous": false,
      "inputs": [
        {
          "indexed": false,
          "internalType": "address",
          "name": "member",
          "type": "address"
        },
        {
          "indexed": false,
          "internalType": "uint256",
          "name": "amount",
          "type": "uint256"
        }
      ],
      "name": "WithdrawalMade",
      "type": "event"
    },
    {
      "inputs": [
        {
          "internalType": "address",
          "name": "",
          "type": "address"
        }
      ],
      "name": "balanceOf",
      "outputs": [
        {
          "internalType": "uint256",
          "name": "",
          "type": "uint256"
        }
      ],
      "stateMutability": "view",
      "type": "function"
    },
    {
      "inputs": [],
      "name": "commissionRate",
      "outputs": [
        {
          "internalType": "uint256",
          "name": "",
          "type": "uint256"
        }
      ],
      "stateMutability": "view",
      "type": "function"
    },
    {
      "inputs": [
        {
          "internalType": "address",
          "name": "",
          "type": "address"
        },
        {
          "internalType": "uint256",
          "name": "",
          "type": "uint256"
        }
      ],
      "name": "donations",
      "outputs": [
        {
          "internalType": "address",
          "name": "donor",
          "type": "address"
        },
        {
          "internalType": "address",
          "name": "receiver",
          "type": "address"
        },
        {
          "internalType": "uint256",
          "name": "amount",
          "type": "uint256"
        }
      ],
      "stateMutability": "view",
      "type": "function"
    },
    {
      "inputs": [
        {
          "internalType": "address",
          "name": "",
          "type": "address"
        }
      ],
      "name": "forceDisabled",
      "outputs": [
        {
          "internalType": "bool",
          "name": "",
          "type": "bool"
        }
      ],
      "stateMutability": "view",
      "type": "function"
    },
    {
      "inputs": [
        {
          "internalType": "address",
          "name": "",
          "type": "address"
        }
      ],
      "name": "isMember",
      "outputs": [
        {
          "internalType": "bool",
          "name": "",
          "type": "bool"
        }
      ],
      "stateMutability": "view",
      "type": "function"
    },
    {
      "inputs": [
        {
          "internalType": "address",
          "name": "",
          "type": "address"
        },
        {
          "internalType": "uint256",
          "name": "",
          "type": "uint256"
        }
      ],
      "name": "nonceUsed",
      "outputs": [
        {
          "internalType": "bool",
          "name": "",
          "type": "bool"
        }
      ],
      "stateMutability": "view",
      "type": "function"
    },
    {
      "inputs": [],
      "name": "owner",
      "outputs": [
        {
          "internalType": "address",
          "name": "",
          "type": "address"
        }
      ],
      "stateMutability": "view",
      "type": "function"
    },
    {
      "inputs": [],
      "name": "renounceOwnership",
      "outputs": [],
      "stateMutability": "nonpayable",
      "type": "function"
    },
    {
      "inputs": [],
      "name": "totalCommissionBalance",
      "outputs": [
        {
          "internalType": "uint256",
          "name": "",
          "type": "uint256"
        }
      ],
      "stateMutability": "view",
      "type": "function"
    },
    {
      "inputs": [
        {
          "internalType": "address",
          "name": "",
          "type": "address"
        }
      ],
      "name": "totalDonations",
      "outputs": [
        {
          "internalType": "uint256",
          "name": "",
          "type": "uint256"
        }
      ],
      "stateMutability": "view",
      "type": "function"
    },
    {
      "inputs": [
        {
          "internalType": "address",
          "name": "newOwner",
          "type": "address"
        }
      ],
      "name": "transferOwnership",
      "outputs": [],
      "stateMutability": "nonpayable",
      "type": "function"
    },
    {
      "inputs": [
        {
          "internalType": "address",
          "name": "_newSigner",
          "type": "address"
        }
      ],
      "name": "setSigner",
      "outputs": [],
      "stateMutability": "nonpayable",
      "type": "function"
    },
    {
      "inputs": [
        {
          "internalType": "address",
          "name": "member",
          "type": "address"
        },
        {
          "internalType": "bool",
          "name": "status",
          "type": "bool"
        }
      ],
      "name": "updateForceDisableStatus",
      "outputs": [],
      "stateMutability": "nonpayable",
      "type": "function"
    },
    {
      "inputs": [
        {
          "internalType": "bytes",
          "name": "_signature",
          "type": "bytes"
        },
        {
          "internalType": "bool",
          "name": "_status",
          "type": "bool"
        },
        {
          "internalType": "uint256",
          "name": "_nonce",
          "type": "uint256"
        }
      ],
      "name": "setMemberStatus",
      "outputs": [],
      "stateMutability": "nonpayable",
      "type": "function"
    },
    {
      "inputs": [
        {
          "internalType": "address",
          "name": "receiver",
          "type": "address"
        }
      ],
      "name": "donate",
      "outputs": [],
      "stateMutability": "payable",
      "type": "function"
    },
    {
      "inputs": [],
      "name": "withdraw",
      "outputs": [],
      "stateMutability": "nonpayable",
      "type": "function"
    },
    {
      "inputs": [],
      "name": "ownerWithdrawal",
      "outputs": [],
      "stateMutability": "nonpayable",
      "type": "function"
    },
    {
      "inputs": [
        {
          "internalType": "uint256",
          "name": "newCommissionRate",
          "type": "uint256"
        }
      ],
      "name": "updateCommissionRate",
      "outputs": [],
      "stateMutability": "nonpayable",
      "type": "function"
    }
  ],
  "bytecode": "0x608060405260056007553480156200001657600080fd5b5060405162002ed938038062002ed983398181016040528101906200003c9190620001da565b6200005c62000050620000a460201b60201c565b620000ac60201b60201c565b80600960006101000a81548173ffffffffffffffffffffffffffffffffffffffff021916908373ffffffffffffffffffffffffffffffffffffffff160217905550506200020c565b600033905090565b60008060009054906101000a900473ffffffffffffffffffffffffffffffffffffffff169050816000806101000a81548173ffffffffffffffffffffffffffffffffffffffff021916908373ffffffffffffffffffffffffffffffffffffffff1602179055508173ffffffffffffffffffffffffffffffffffffffff168173ffffffffffffffffffffffffffffffffffffffff167f8be0079c531659141344cd1fd0a4f28419497f9722a3daafe3b4186f6b6457e060405160405180910390a35050565b600080fd5b600073ffffffffffffffffffffffffffffffffffffffff82169050919050565b6000620001a28262000175565b9050919050565b620001b48162000195565b8114620001c057600080fd5b50565b600081519050620001d481620001a9565b92915050565b600060208284031215620001f357620001f262000170565b5b60006200020384828501620001c3565b91505092915050565b612cbd806200021c6000396000f3fe6080604052600436106101075760003560e01c8063715018a611610095578063a230c52411610064578063a230c5241461035a578063f0c08ca814610397578063f27a0447146103c2578063f2fde38b146103d9578063fe5907971461040257610107565b8063715018a6146102b0578063829445e7146102c75780638da5cb5b146102f057806395086ed11461031b57610107565b80633ccfd60b116100dc5780633ccfd60b146101cb5780635a4c38a7146101e25780635ea1d6f81461021f5780636c19e7831461024a57806370a082311461027357610107565b8062362a951461010c578062fa3d50146101285780630575b15e146101515780631647795e1461018e575b600080fd5b61012660048036038101906101219190611b34565b61042b565b005b34801561013457600080fd5b5061014f600480360381019061014a9190611b97565b61085a565b005b34801561015d57600080fd5b5061017860048036038101906101739190611b34565b6108e0565b6040516101859190611bdf565b60405180910390f35b34801561019a57600080fd5b506101b560048036038101906101b09190611bfa565b610900565b6040516101c29190611bdf565b60405180910390f35b3480156101d757600080fd5b506101e061092f565b005b3480156101ee57600080fd5b5061020960048036038101906102049190611b34565b610c3c565b6040516102169190611c49565b60405180910390f35b34801561022b57600080fd5b50610234610c54565b6040516102419190611c49565b60405180910390f35b34801561025657600080fd5b50610271600480360381019061026c9190611b34565b610c5a565b005b34801561027f57600080fd5b5061029a60048036038101906102959190611b34565b610d1a565b6040516102a79190611c49565b60405180910390f35b3480156102bc57600080fd5b506102c5610d32565b005b3480156102d357600080fd5b506102ee60048036038101906102e99190611dd6565b610dba565b005b3480156102fc57600080fd5b506103056110c9565b6040516103129190611e54565b60405180910390f35b34801561032757600080fd5b50610342600480360381019061033d9190611bfa565b6110f2565b60405161035193929190611e6f565b60405180910390f35b34801561036657600080fd5b50610381600480360381019061037c9190611b34565b611169565b60405161038e9190611bdf565b60405180910390f35b3480156103a357600080fd5b506103ac611189565b6040516103b99190611c49565b60405180910390f35b3480156103ce57600080fd5b506103d761118f565b005b3480156103e557600080fd5b5061040060048036038101906103fb9190611b34565b611309565b005b34801561040e57600080fd5b5061042960048036038101906104249190611ea6565b611401565b005b6000341161046e576040517f08c379a000000000000000000000000000000000000000000000000000000000815260040161046590611f43565b60405180910390fd5b600360008273ffffffffffffffffffffffffffffffffffffffff1673ffffffffffffffffffffffffffffffffffffffff16815260200190815260200160002060009054906101000a900460ff166104fa576040517f08c379a00000000000000000000000000000000000000000000000000000000081526004016104f190611faf565b60405180910390fd5b600660008273ffffffffffffffffffffffffffffffffffffffff1673ffffffffffffffffffffffffffffffffffffffff16815260200190815260200160002060009054906101000a900460ff1615610587576040517f08c379a000000000000000000000000000000000000000000000000000000000815260040161057e90612041565b60405180910390fd5b3373ffffffffffffffffffffffffffffffffffffffff168173ffffffffffffffffffffffffffffffffffffffff1614156105f6576040517f08c379a00000000000000000000000000000000000000000000000000000000081526004016105ed906120d3565b60405180910390fd5b60006064600754346106089190612122565b61061291906121ab565b9050806008600082825461062691906121dc565b9250508190555080346106399190612232565b600460008473ffffffffffffffffffffffffffffffffffffffff1673ffffffffffffffffffffffffffffffffffffffff168152602001908152602001600020600082825461068791906121dc565b925050819055506000600260008473ffffffffffffffffffffffffffffffffffffffff1673ffffffffffffffffffffffffffffffffffffffff16815260200190815260200160002060008154809291906106e090612266565b91905055905060405180606001604052803373ffffffffffffffffffffffffffffffffffffffff1681526020018473ffffffffffffffffffffffffffffffffffffffff16815260200134815250600160008573ffffffffffffffffffffffffffffffffffffffff1673ffffffffffffffffffffffffffffffffffffffff168152602001908152602001600020600083815260200190815260200160002060008201518160000160006101000a81548173ffffffffffffffffffffffffffffffffffffffff021916908373ffffffffffffffffffffffffffffffffffffffff16021790555060208201518160010160006101000a81548173ffffffffffffffffffffffffffffffffffffffff021916908373ffffffffffffffffffffffffffffffffffffffff160217905550604082015181600201559050507f72ea702afc24965f735ac4ac552f859b352084ad99f47a425a691630814014fe8133853460405161084d94939291906122af565b60405180910390a1505050565b6108626115db565b73ffffffffffffffffffffffffffffffffffffffff166108806110c9565b73ffffffffffffffffffffffffffffffffffffffff16146108d6576040517f08c379a00000000000000000000000000000000000000000000000000000000081526004016108cd90612340565b60405180910390fd5b8060078190555050565b60066020528060005260406000206000915054906101000a900460ff1681565b60056020528160005260406000206020528060005260406000206000915091509054906101000a900460ff1681565b600360003373ffffffffffffffffffffffffffffffffffffffff1673ffffffffffffffffffffffffffffffffffffffff16815260200190815260200160002060009054906101000a900460ff166109bb576040517f08c379a00000000000000000000000000000000000000000000000000000000081526004016109b2906123ac565b60405180910390fd5b600660003373ffffffffffffffffffffffffffffffffffffffff1673ffffffffffffffffffffffffffffffffffffffff16815260200190815260200160002060009054906101000a900460ff1615610a48576040517f08c379a0000000000000000000000000000000000000000000000000000000008152600401610a3f90612418565b60405180910390fd5b6000600460003373ffffffffffffffffffffffffffffffffffffffff1673ffffffffffffffffffffffffffffffffffffffff1681526020019081526020016000205411610aca576040517f08c379a0000000000000000000000000000000000000000000000000000000008152600401610ac190612484565b60405180910390fd5b6000600460003373ffffffffffffffffffffffffffffffffffffffff1673ffffffffffffffffffffffffffffffffffffffff16815260200190815260200160002054905060003373ffffffffffffffffffffffffffffffffffffffff1682604051610b34906124d5565b60006040518083038185875af1925050503d8060008114610b71576040519150601f19603f3d011682016040523d82523d6000602084013e610b76565b606091505b5050905080610bba576040517f08c379a0000000000000000000000000000000000000000000000000000000008152600401610bb190612536565b60405180910390fd5b6000600460003373ffffffffffffffffffffffffffffffffffffffff1673ffffffffffffffffffffffffffffffffffffffff168152602001908152602001600020819055507fbc158bb64f05d6383aea69bbb0b20c1bbf4b7a18f63359c5649b7c39e29d38843383604051610c30929190612556565b60405180910390a15050565b60026020528060005260406000206000915090505481565b60075481565b610c626115db565b73ffffffffffffffffffffffffffffffffffffffff16610c806110c9565b73ffffffffffffffffffffffffffffffffffffffff1614610cd6576040517f08c379a0000000000000000000000000000000000000000000000000000000008152600401610ccd90612340565b60405180910390fd5b80600960006101000a81548173ffffffffffffffffffffffffffffffffffffffff021916908373ffffffffffffffffffffffffffffffffffffffff16021790555050565b60046020528060005260406000206000915090505481565b610d3a6115db565b73ffffffffffffffffffffffffffffffffffffffff16610d586110c9565b73ffffffffffffffffffffffffffffffffffffffff1614610dae576040517f08c379a0000000000000000000000000000000000000000000000000000000008152600401610da590612340565b60405180910390fd5b610db860006115e3565b565b600560003373ffffffffffffffffffffffffffffffffffffffff1673ffffffffffffffffffffffffffffffffffffffff168152602001908152602001600020600082815260200190815260200160002060009054906101000a900460ff1615610e58576040517f08c379a0000000000000000000000000000000000000000000000000000000008152600401610e4f906125cb565b60405180910390fd5b81151515600360003373ffffffffffffffffffffffffffffffffffffffff1673ffffffffffffffffffffffffffffffffffffffff16815260200190815260200160002060009054906101000a900460ff16151514610eeb576040517f08c379a0000000000000000000000000000000000000000000000000000000008152600401610ee290612637565b60405180910390fd5b6000338383604051602001610f0293929190612708565b6040516020818303038152906040528051906020012090506000610f25826116a7565b9050600960009054906101000a900473ffffffffffffffffffffffffffffffffffffffff1673ffffffffffffffffffffffffffffffffffffffff16610f7386836116d790919063ffffffff16565b73ffffffffffffffffffffffffffffffffffffffff1614610fc9576040517f08c379a0000000000000000000000000000000000000000000000000000000008152600401610fc090612791565b60405180910390fd5b83600360003373ffffffffffffffffffffffffffffffffffffffff1673ffffffffffffffffffffffffffffffffffffffff16815260200190815260200160002060006101000a81548160ff0219169083151502179055506001600560003373ffffffffffffffffffffffffffffffffffffffff1673ffffffffffffffffffffffffffffffffffffffff168152602001908152602001600020600085815260200190815260200160002060006101000a81548160ff0219169083151502179055507feb394bcb65f74534ce0bb5c8fc7ecefce70aa2000432fa8bea3646ba5876b9db33856040516110ba9291906127b1565b60405180910390a15050505050565b60008060009054906101000a900473ffffffffffffffffffffffffffffffffffffffff16905090565b6001602052816000526040600020602052806000526040600020600091509150508060000160009054906101000a900473ffffffffffffffffffffffffffffffffffffffff16908060010160009054906101000a900473ffffffffffffffffffffffffffffffffffffffff16908060020154905083565b60036020528060005260406000206000915054906101000a900460ff1681565b60085481565b6111976115db565b73ffffffffffffffffffffffffffffffffffffffff166111b56110c9565b73ffffffffffffffffffffffffffffffffffffffff161461120b576040517f08c379a000000000000000000000000000000000000000000000000000000000815260040161120290612340565b60405180910390fd5b600060085411611250576040517f08c379a000000000000000000000000000000000000000000000000000000000815260040161124790612484565b60405180910390fd5b60003373ffffffffffffffffffffffffffffffffffffffff16600854604051611278906124d5565b60006040518083038185875af1925050503d80600081146112b5576040519150601f19603f3d011682016040523d82523d6000602084013e6112ba565b606091505b50509050806112fe576040517f08c379a00000000000000000000000000000000000000000000000000000000081526004016112f590612536565b60405180910390fd5b600060088190555050565b6113116115db565b73ffffffffffffffffffffffffffffffffffffffff1661132f6110c9565b73ffffffffffffffffffffffffffffffffffffffff1614611385576040517f08c379a000000000000000000000000000000000000000000000000000000000815260040161137c90612340565b60405180910390fd5b600073ffffffffffffffffffffffffffffffffffffffff168173ffffffffffffffffffffffffffffffffffffffff1614156113f5576040517f08c379a00000000000000000000000000000000000000000000000000000000081526004016113ec9061284c565b60405180910390fd5b6113fe816115e3565b50565b6114096115db565b73ffffffffffffffffffffffffffffffffffffffff166114276110c9565b73ffffffffffffffffffffffffffffffffffffffff161461147d576040517f08c379a000000000000000000000000000000000000000000000000000000000815260040161147490612340565b60405180910390fd5b600073ffffffffffffffffffffffffffffffffffffffff168273ffffffffffffffffffffffffffffffffffffffff1614156114ed576040517f08c379a00000000000000000000000000000000000000000000000000000000081526004016114e4906128b8565b60405180910390fd5b801515600660008473ffffffffffffffffffffffffffffffffffffffff1673ffffffffffffffffffffffffffffffffffffffff16815260200190815260200160002060009054906101000a900460ff1615151415611580576040517f08c379a000000000000000000000000000000000000000000000000000000000815260040161157790612924565b60405180910390fd5b80600660008473ffffffffffffffffffffffffffffffffffffffff1673ffffffffffffffffffffffffffffffffffffffff16815260200190815260200160002060006101000a81548160ff0219169083151502179055505050565b600033905090565b60008060009054906101000a900473ffffffffffffffffffffffffffffffffffffffff169050816000806101000a81548173ffffffffffffffffffffffffffffffffffffffff021916908373ffffffffffffffffffffffffffffffffffffffff1602179055508173ffffffffffffffffffffffffffffffffffffffff168173ffffffffffffffffffffffffffffffffffffffff167f8be0079c531659141344cd1fd0a4f28419497f9722a3daafe3b4186f6b6457e060405160405180910390a35050565b6000816040516020016116ba91906129c6565b604051602081830303815290604052805190602001209050919050565b60008060006116e685856116fe565b915091506116f381611781565b819250505092915050565b6000806041835114156117405760008060006020860151925060408601519150606086015160001a905061173487828585611956565b9450945050505061177a565b604083511415611771576000806020850151915060408501519050611766868383611a63565b93509350505061177a565b60006002915091505b9250929050565b60006004811115611795576117946129ec565b5b8160048111156117a8576117a76129ec565b5b14156117b357611953565b600160048111156117c7576117c66129ec565b5b8160048111156117da576117d96129ec565b5b141561181b576040517f08c379a000000000000000000000000000000000000000000000000000000000815260040161181290612a67565b60405180910390fd5b6002600481111561182f5761182e6129ec565b5b816004811115611842576118416129ec565b5b1415611883576040517f08c379a000000000000000000000000000000000000000000000000000000000815260040161187a90612ad3565b60405180910390fd5b60036004811115611897576118966129ec565b5b8160048111156118aa576118a96129ec565b5b14156118eb576040517f08c379a00000000000000000000000000000000000000000000000000000000081526004016118e290612b65565b60405180910390fd5b6004808111156118fe576118fd6129ec565b5b816004811115611911576119106129ec565b5b1415611952576040517f08c379a000000000000000000000000000000000000000000000000000000000815260040161194990612bf7565b60405180910390fd5b5b50565b6000807f7fffffffffffffffffffffffffffffff5d576e7357a4501ddfe92f46681b20a08360001c1115611991576000600391509150611a5a565b601b8560ff16141580156119a95750601c8560ff1614155b156119bb576000600491509150611a5a565b6000600187878787604051600081526020016040526040516119e09493929190612c42565b6020604051602081039080840390855afa158015611a02573d6000803e3d6000fd5b505050602060405103519050600073ffffffffffffffffffffffffffffffffffffffff168173ffffffffffffffffffffffffffffffffffffffff161415611a5157600060019250925050611a5a565b80600092509250505b94509492505050565b60008060007f7fffffffffffffffffffffffffffffffffffffffffffffffffffffffffffffff60001b841690506000601b60ff8660001c901c611aa691906121dc565b9050611ab487828885611956565b935093505050935093915050565b6000604051905090565b600080fd5b600080fd5b600073ffffffffffffffffffffffffffffffffffffffff82169050919050565b6000611b0182611ad6565b9050919050565b611b1181611af6565b8114611b1c57600080fd5b50565b600081359050611b2e81611b08565b92915050565b600060208284031215611b4a57611b49611acc565b5b6000611b5884828501611b1f565b91505092915050565b6000819050919050565b611b7481611b61565b8114611b7f57600080fd5b50565b600081359050611b9181611b6b565b92915050565b600060208284031215611bad57611bac611acc565b5b6000611bbb84828501611b82565b91505092915050565b60008115159050919050565b611bd981611bc4565b82525050565b6000602082019050611bf46000830184611bd0565b92915050565b60008060408385031215611c1157611c10611acc565b5b6000611c1f85828601611b1f565b9250506020611c3085828601611b82565b9150509250929050565b611c4381611b61565b82525050565b6000602082019050611c5e6000830184611c3a565b92915050565b600080fd5b600080fd5b6000601f19601f8301169050919050565b7f4e487b7100000000000000000000000000000000000000000000000000000000600052604160045260246000fd5b611cb782611c6e565b810181811067ffffffffffffffff82111715611cd657611cd5611c7f565b5b80604052505050565b6000611ce9611ac2565b9050611cf58282611cae565b919050565b600067ffffffffffffffff821115611d1557611d14611c7f565b5b611d1e82611c6e565b9050602081019050919050565b82818337600083830152505050565b6000611d4d611d4884611cfa565b611cdf565b905082815260208101848484011115611d6957611d68611c69565b5b611d74848285611d2b565b509392505050565b600082601f830112611d9157611d90611c64565b5b8135611da1848260208601611d3a565b91505092915050565b611db381611bc4565b8114611dbe57600080fd5b50565b600081359050611dd081611daa565b92915050565b600080600060608486031215611def57611dee611acc565b5b600084013567ffffffffffffffff811115611e0d57611e0c611ad1565b5b611e1986828701611d7c565b9350506020611e2a86828701611dc1565b9250506040611e3b86828701611b82565b9150509250925092565b611e4e81611af6565b82525050565b6000602082019050611e696000830184611e45565b92915050565b6000606082019050611e846000830186611e45565b611e916020830185611e45565b611e9e6040830184611c3a565b949350505050565b60008060408385031215611ebd57611ebc611acc565b5b6000611ecb85828601611b1f565b9250506020611edc85828601611dc1565b9150509250929050565b600082825260208201905092915050565b7f696e73756666696369616e7420616d6f756e7400000000000000000000000000600082015250565b6000611f2d601383611ee6565b9150611f3882611ef7565b602082019050919050565b60006020820190508181036000830152611f5c81611f20565b9050919050565b7f746865207265636569766572206973206e6f742061206d656d62657200000000600082015250565b6000611f99601c83611ee6565b9150611fa482611f63565b602082019050919050565b60006020820190508181036000830152611fc881611f8c565b9050919050565b7f7468652072656365697665722069732063757272656e746c792064697361626c60008201527f6564000000000000000000000000000000000000000000000000000000000000602082015250565b600061202b602283611ee6565b915061203682611fcf565b604082019050919050565b6000602082019050818103600083015261205a8161201e565b9050919050565b7f796f752063616e6e6f742073656e6420646f6e6174696f6e20746f20796f757260008201527f73656c6600000000000000000000000000000000000000000000000000000000602082015250565b60006120bd602483611ee6565b91506120c882612061565b604082019050919050565b600060208201905081810360008301526120ec816120b0565b9050919050565b7f4e487b7100000000000000000000000000000000000000000000000000000000600052601160045260246000fd5b600061212d82611b61565b915061213883611b61565b9250817fffffffffffffffffffffffffffffffffffffffffffffffffffffffffffffffff0483118215151615612171576121706120f3565b5b828202905092915050565b7f4e487b7100000000000000000000000000000000000000000000000000000000600052601260045260246000fd5b60006121b682611b61565b91506121c183611b61565b9250826121d1576121d061217c565b5b828204905092915050565b60006121e782611b61565b91506121f283611b61565b9250827fffffffffffffffffffffffffffffffffffffffffffffffffffffffffffffffff03821115612227576122266120f3565b5b828201905092915050565b600061223d82611b61565b915061224883611b61565b92508282101561225b5761225a6120f3565b5b828203905092915050565b600061227182611b61565b91507fffffffffffffffffffffffffffffffffffffffffffffffffffffffffffffffff8214156122a4576122a36120f3565b5b600182019050919050565b60006080820190506122c46000830187611c3a565b6122d16020830186611e45565b6122de6040830185611e45565b6122eb6060830184611c3a565b95945050505050565b7f4f776e61626c653a2063616c6c6572206973206e6f7420746865206f776e6572600082015250565b600061232a602083611ee6565b9150612335826122f4565b602082019050919050565b600060208201905081810360008301526123598161231d565b9050919050565b7f796f7520617265206e6f742061206d656d626572000000000000000000000000600082015250565b6000612396601483611ee6565b91506123a182612360565b602082019050919050565b600060208201905081810360008301526123c581612389565b9050919050565b7f796f75206172652063757272656e746c792064697361626c6564000000000000600082015250565b6000612402601a83611ee6565b915061240d826123cc565b602082019050919050565b60006020820190508181036000830152612431816123f5565b9050919050565b7f696e73756666696369616e742062616c616e6365000000000000000000000000600082015250565b600061246e601483611ee6565b915061247982612438565b602082019050919050565b6000602082019050818103600083015261249d81612461565b9050919050565b600081905092915050565b50565b60006124bf6000836124a4565b91506124ca826124af565b600082019050919050565b60006124e0826124b2565b9150819050919050565b7f66756e64207472616e73666572206661696c6564000000000000000000000000600082015250565b6000612520601483611ee6565b915061252b826124ea565b602082019050919050565b6000602082019050818103600083015261254f81612513565b9050919050565b600060408201905061256b6000830185611e45565b6125786020830184611c3a565b9392505050565b7f6e6f6e636520616c726561647920757365640000000000000000000000000000600082015250565b60006125b5601283611ee6565b91506125c08261257f565b602082019050919050565b600060208201905081810360008301526125e4816125a8565b9050919050565b7f73746174757320616c7265616479207570646174656400000000000000000000600082015250565b6000612621601683611ee6565b915061262c826125eb565b602082019050919050565b6000602082019050818103600083015261265081612614565b9050919050565b60008160601b9050919050565b600061266f82612657565b9050919050565b600061268182612664565b9050919050565b61269961269482611af6565b612676565b82525050565b60008160f81b9050919050565b60006126b78261269f565b9050919050565b60006126c9826126ac565b9050919050565b6126e16126dc82611bc4565b6126be565b82525050565b6000819050919050565b6127026126fd82611b61565b6126e7565b82525050565b60006127148286612688565b60148201915061272482856126d0565b60018201915061273482846126f1565b602082019150819050949350505050565b7f696e76616c6964207369676e6174757265000000000000000000000000000000600082015250565b600061277b601183611ee6565b915061278682612745565b602082019050919050565b600060208201905081810360008301526127aa8161276e565b9050919050565b60006040820190506127c66000830185611e45565b6127d36020830184611bd0565b9392505050565b7f4f776e61626c653a206e6577206f776e657220697320746865207a65726f206160008201527f6464726573730000000000000000000000000000000000000000000000000000602082015250565b6000612836602683611ee6565b9150612841826127da565b604082019050919050565b6000602082019050818103600083015261286581612829565b9050919050565b7f696e76616c6964206d656d626572206164647265737300000000000000000000600082015250565b60006128a2601683611ee6565b91506128ad8261286c565b602082019050919050565b600060208201905081810360008301526128d181612895565b9050919050565b7f616c726561647920757064617465640000000000000000000000000000000000600082015250565b600061290e600f83611ee6565b9150612919826128d8565b602082019050919050565b6000602082019050818103600083015261293d81612901565b9050919050565b600081905092915050565b7f19457468657265756d205369676e6564204d6573736167653a0a333200000000600082015250565b6000612985601c83612944565b91506129908261294f565b601c82019050919050565b6000819050919050565b6000819050919050565b6129c06129bb8261299b565b6129a5565b82525050565b60006129d182612978565b91506129dd82846129af565b60208201915081905092915050565b7f4e487b7100000000000000000000000000000000000000000000000000000000600052602160045260246000fd5b7f45434453413a20696e76616c6964207369676e61747572650000000000000000600082015250565b6000612a51601883611ee6565b9150612a5c82612a1b565b602082019050919050565b60006020820190508181036000830152612a8081612a44565b9050919050565b7f45434453413a20696e76616c6964207369676e6174757265206c656e67746800600082015250565b6000612abd601f83611ee6565b9150612ac882612a87565b602082019050919050565b60006020820190508181036000830152612aec81612ab0565b9050919050565b7f45434453413a20696e76616c6964207369676e6174757265202773272076616c60008201527f7565000000000000000000000000000000000000000000000000000000000000602082015250565b6000612b4f602283611ee6565b9150612b5a82612af3565b604082019050919050565b60006020820190508181036000830152612b7e81612b42565b9050919050565b7f45434453413a20696e76616c6964207369676e6174757265202776272076616c60008201527f7565000000000000000000000000000000000000000000000000000000000000602082015250565b6000612be1602283611ee6565b9150612bec82612b85565b604082019050919050565b60006020820190508181036000830152612c1081612bd4565b9050919050565b612c208161299b565b82525050565b600060ff82169050919050565b612c3c81612c26565b82525050565b6000608082019050612c576000830187612c17565b612c646020830186612c33565b612c716040830185612c17565b612c7e6060830184612c17565b9594505050505056fea2646970667358221220a9b2995d75a6ddaf2f6990a697770f3883e69684b0af19177cefa785d2281b0964736f6c63430008090033",
  "immutableReferences": {},
  "source": "// SPDX-License-Identifier: MIT\npragma solidity >=0.4.22 <0.9.0;\n\nimport \"@openzeppelin/contracts/access/Ownable.sol\";\nimport \"@openzeppelin/contracts/utils/cryptography/ECDSA.sol\";\n\ncontract Donations is Ownable {\n    using ECDSA for bytes32;\n\n    struct Donation {\n        address donor;\n        address receiver;\n        uint256 amount;\n    }\n\n    mapping(address => mapping(uint256 => Donation)) public donations;\n    mapping(address => uint256) public totalDonations;\n    mapping(address => bool) public isMember;\n    mapping(address => uint256) public balanceOf;\n    mapping(address => mapping(uint256 => bool)) public nonceUsed;\n    mapping(address => bool) public forceDisabled;\n\n    uint256 public commissionRate = 5;\n    uint256 public totalCommissionBalance;\n    address private _signer;\n\n    event DonationMade(\n        uint256 donationId,\n        address donor,\n        address receiver,\n        uint256 amount\n    );\n    event MemberStatusChange(address member, bool status);\n    event WithdrawalMade(address member, uint256 amount);\n\n    constructor(address _newSigner) Ownable() {\n        _signer = _newSigner;\n    }\n\n    function setSigner(address _newSigner) public onlyOwner {\n        _signer = _newSigner;\n    }\n\n    function updateForceDisableStatus(address member, bool status)\n        public\n        onlyOwner\n    {\n        require(member != address(0), \"invalid member address\");\n        require(forceDisabled[member] != status, \"already updated\");\n        forceDisabled[member] = status;\n    }\n\n    function setMemberStatus(\n        bytes memory _signature,\n        bool _status,\n        uint256 _nonce\n    ) public {\n        require(!nonceUsed[msg.sender][_nonce], \"nonce already used\");\n        require(isMember[msg.sender] == !_status, \"status already updated\");\n        bytes32 hash = keccak256(abi.encodePacked(msg.sender, _status, _nonce));\n        bytes32 messageHash = hash.toEthSignedMessageHash();\n        require(\n            messageHash.recover(_signature) == _signer,\n            \"invalid signature\"\n        );\n        isMember[msg.sender] = _status;\n        nonceUsed[msg.sender][_nonce] = true;\n        emit MemberStatusChange(msg.sender, _status);\n    }\n\n    function donate(address receiver) public payable {\n        require(msg.value > 0, \"insufficiant amount\");\n        require(isMember[receiver], \"the receiver is not a member\");\n        require(!forceDisabled[receiver], \"the receiver is currently disabled\");\n        require(receiver != msg.sender, \"you cannot send donation to yourself\");\n        uint256 commission = (msg.value * commissionRate) / 100;\n        totalCommissionBalance += commission;\n        balanceOf[receiver] += msg.value - commission;\n        uint256 donationId = totalDonations[receiver]++;\n        donations[receiver][donationId] = Donation(\n            msg.sender,\n            receiver,\n            msg.value\n        );\n        emit DonationMade(donationId, msg.sender, receiver, msg.value);\n    }\n\n    function withdraw() public {\n        require(isMember[msg.sender], \"you are not a member\");\n        require(!forceDisabled[msg.sender], \"you are currently disabled\");\n        require(balanceOf[msg.sender] > 0, \"insufficiant balance\");\n        uint256 balance = balanceOf[msg.sender];\n        (bool success, ) = msg.sender.call{value: balance}(\"\");\n        require(success, \"fund transfer failed\");\n        balanceOf[msg.sender] = 0;\n        emit WithdrawalMade(msg.sender, balance);\n    }\n\n    function ownerWithdrawal() public onlyOwner {\n        require(totalCommissionBalance > 0, \"insufficiant balance\");\n        (bool success, ) = msg.sender.call{value: totalCommissionBalance}(\"\");\n        require(success, \"fund transfer failed\");\n        totalCommissionBalance = 0;\n    }\n\n    function updateCommissionRate(uint256 newCommissionRate) public onlyOwner {\n        commissionRate = newCommissionRate;\n    }\n}\n",
  "sourcePath": "/Users/yash/Development/blockchain_projects/buymecoffee/smart_contracts/contracts/Donations.sol",
  "compiler": {
    "name": "solc",
    "version": "0.8.9+commit.e5eed63a.Emscripten.clang"
  },
  "schemaVersion": "3.4.3",
  "updatedAt": "2022-03-04T11:39:57.242Z",
  "devdoc": {
    "kind": "dev",
    "methods": {
      "owner()": {
        "details": "Returns the address of the current owner."
      },
      "renounceOwnership()": {
        "details": "Leaves the contract without owner. It will not be possible to call `onlyOwner` functions anymore. Can only be called by the current owner. NOTE: Renouncing ownership will leave the contract without an owner, thereby removing any functionality that is only available to the owner."
      },
      "transferOwnership(address)": {
        "details": "Transfers ownership of the contract to a new account (`newOwner`). Can only be called by the current owner."
      }
    },
    "version": 1
  },
  "userdoc": {
    "kind": "user",
    "methods": {},
    "version": 1
  }
}